{
  "_format": "hh-sol-artifact-1",
  "contractName": "Aggregator",
  "sourceName": "contracts/Aggregator.sol",
  "abi": [
    {
      "inputs": [
        {
          "internalType": "address",
          "name": "incomeAddress",
          "type": "address"
        },
        {
          "internalType": "address",
          "name": "manaAddress",
          "type": "address"
        },
        {
          "internalType": "uint256",
          "name": "fee",
          "type": "uint256"
        }
      ],
      "stateMutability": "nonpayable",
      "type": "constructor"
    },
    {
      "inputs": [
        {
          "internalType": "address",
          "name": "to",
          "type": "address"
        },
        {
          "internalType": "string",
          "name": "nftName",
          "type": "string"
        }
      ],
      "name": "buyNFT",
      "outputs": [],
      "stateMutability": "nonpayable",
      "type": "function"
    },
    {
      "inputs": [
        {
          "internalType": "address",
          "name": "to",
          "type": "address"
        },
        {
          "internalType": "string",
          "name": "groupName",
          "type": "string"
        }
      ],
      "name": "buyNFTGroup",
      "outputs": [],
      "stateMutability": "nonpayable",
      "type": "function"
    },
    {
      "inputs": [
        {
          "internalType": "string",
          "name": "name",
          "type": "string"
        },
        {
          "internalType": "string",
          "name": "desc",
          "type": "string"
        },
        {
          "internalType": "uint256",
          "name": "price",
          "type": "uint256"
        },
        {
          "internalType": "uint256",
          "name": "lowerBound",
          "type": "uint256"
        },
        {
          "internalType": "uint256",
          "name": "upperBound",
          "type": "uint256"
        },
        {
          "internalType": "uint256",
          "name": "balance",
          "type": "uint256"
        },
        {
          "internalType": "address",
          "name": "addr",
          "type": "address"
        }
      ],
      "name": "createNFT",
      "outputs": [],
      "stateMutability": "nonpayable",
      "type": "function"
    },
    {
      "inputs": [
        {
          "internalType": "string",
          "name": "nftName",
          "type": "string"
        },
        {
          "internalType": "string",
          "name": "groupName",
          "type": "string"
        }
      ],
      "name": "deleteNFTFromGroup",
      "outputs": [],
      "stateMutability": "nonpayable",
      "type": "function"
    },
    {
      "inputs": [
        {
          "internalType": "string",
          "name": "name",
          "type": "string"
        }
      ],
      "name": "getNFT",
      "outputs": [
        {
          "internalType": "string",
          "name": "",
          "type": "string"
        },
        {
          "internalType": "uint256",
          "name": "",
          "type": "uint256"
        },
        {
          "internalType": "uint256",
          "name": "",
          "type": "uint256"
        },
        {
          "internalType": "uint256",
          "name": "",
          "type": "uint256"
        },
        {
          "internalType": "uint256",
          "name": "",
          "type": "uint256"
        },
        {
          "internalType": "address",
          "name": "",
          "type": "address"
        }
      ],
      "stateMutability": "view",
      "type": "function"
    },
    {
      "inputs": [
        {
          "internalType": "string",
          "name": "groupName",
          "type": "string"
        }
      ],
      "name": "getNFTGroup",
      "outputs": [
        {
          "internalType": "string[]",
          "name": "",
          "type": "string[]"
        }
      ],
      "stateMutability": "view",
      "type": "function"
    },
    {
      "inputs": [
        {
          "internalType": "string",
          "name": "name",
          "type": "string"
        },
        {
          "internalType": "uint256",
          "name": "increasement",
          "type": "uint256"
        }
      ],
      "name": "increaseNFT",
      "outputs": [],
      "stateMutability": "nonpayable",
      "type": "function"
    },
    {
      "inputs": [
        {
          "internalType": "string[]",
          "name": "nftNames",
          "type": "string[]"
        },
        {
          "internalType": "string",
          "name": "groupName",
          "type": "string"
        }
      ],
      "name": "putNFTsIntoGroup",
      "outputs": [],
      "stateMutability": "nonpayable",
      "type": "function"
    },
    {
      "inputs": [
        {
          "internalType": "address",
          "name": "_to",
          "type": "address"
        },
        {
          "internalType": "uint256",
          "name": "amt",
          "type": "uint256"
        }
      ],
      "name": "transferERC20",
      "outputs": [],
      "stateMutability": "nonpayable",
      "type": "function"
    },
    {
      "inputs": [
        {
          "internalType": "address",
          "name": "to",
          "type": "address"
        },
        {
          "internalType": "string",
          "name": "name",
          "type": "string"
        },
        {
          "internalType": "uint256",
          "name": "num",
          "type": "uint256"
        }
      ],
      "name": "transferNFT",
      "outputs": [],
      "stateMutability": "nonpayable",
      "type": "function"
    }
  ],
  "bytecode": "0x60806040523480156200001157600080fd5b5060405162002c9338038062002c93833981810160405281019062000037919062000137565b33600160006101000a81548173ffffffffffffffffffffffffffffffffffffffff021916908373ffffffffffffffffffffffffffffffffffffffff16021790555082600260006101000a81548173ffffffffffffffffffffffffffffffffffffffff021916908373ffffffffffffffffffffffffffffffffffffffff160217905550816000806101000a81548173ffffffffffffffffffffffffffffffffffffffff021916908373ffffffffffffffffffffffffffffffffffffffff16021790555080600381905550505050620001ff565b6000815190506200011a81620001cb565b92915050565b6000815190506200013181620001e5565b92915050565b6000806000606084860312156200014d57600080fd5b60006200015d8682870162000109565b9350506020620001708682870162000109565b9250506040620001838682870162000120565b9150509250925092565b60006200019a82620001a1565b9050919050565b600073ffffffffffffffffffffffffffffffffffffffff82169050919050565b6000819050919050565b620001d6816200018d565b8114620001e257600080fd5b50565b620001f081620001c1565b8114620001fc57600080fd5b50565b612a84806200020f6000396000f3fe608060405234801561001057600080fd5b506004361061009e5760003560e01c8063c587103211610066578063c587103214610143578063d918418e1461015f578063e976414114610194578063f4bd42dc146101b0578063f7448a31146101cc5761009e565b806325073388146100a35780633eecd8ac146100bf57806360315b9e146100db57806376270d82146100f75780638a56763a14610127575b600080fd5b6100bd60048036038101906100b89190611f5c565b6101e8565b005b6100d960048036038101906100d49190611d77565b610421565b005b6100f560048036038101906100f09190611e1a565b6108f9565b005b610111600480360381019061010c9190611eaf565b610a45565b60405161011e91906123c8565b60405180910390f35b610141600480360381019061013c9190611ef0565b610b3c565b005b61015d60048036038101906101589190611d23565b610ea7565b005b61017960048036038101906101749190611eaf565b6111cb565b60405161018b969594939291906123ea565b60405180910390f35b6101ae60048036038101906101a9919061202a565b611345565b005b6101ca60048036038101906101c59190611d23565b611411565b005b6101e660048036038101906101e19190611dde565b6114ee565b005b600160009054906101000a900473ffffffffffffffffffffffffffffffffffffffff1673ffffffffffffffffffffffffffffffffffffffff163373ffffffffffffffffffffffffffffffffffffffff1614610278576040517f08c379a000000000000000000000000000000000000000000000000000000000815260040161026f906124d2565b60405180910390fd5b600073ffffffffffffffffffffffffffffffffffffffff166005886040516102a0919061231f565b908152602001604051809103902060050160009054906101000a900473ffffffffffffffffffffffffffffffffffffffff1673ffffffffffffffffffffffffffffffffffffffff1614610328576040517f08c379a000000000000000000000000000000000000000000000000000000000815260040161031f90612452565b60405180910390fd5b6040518060c001604052808781526020018681526020018581526020018481526020018381526020018273ffffffffffffffffffffffffffffffffffffffff1681525060058860405161037b919061231f565b908152602001604051809103902060008201518160000190805190602001906103a5929190611a47565b506020820151816001015560408201518160020155606082015181600301556080820151816004015560a08201518160050160006101000a81548173ffffffffffffffffffffffffffffffffffffffff021916908373ffffffffffffffffffffffffffffffffffffffff16021790555090505050505050505050565b600160009054906101000a900473ffffffffffffffffffffffffffffffffffffffff1673ffffffffffffffffffffffffffffffffffffffff163373ffffffffffffffffffffffffffffffffffffffff16146104b1576040517f08c379a00000000000000000000000000000000000000000000000000000000081526004016104a8906124d2565b60405180910390fd5b60006005836040516104c3919061231f565b90815260200160405180910390206040518060c00160405290816000820180546104ec906127c3565b80601f0160208091040260200160405190810160405280929190818152602001828054610518906127c3565b80156105655780601f1061053a57610100808354040283529160200191610565565b820191906000526020600020905b81548152906001019060200180831161054857829003601f168201915b50505050508152602001600182015481526020016002820154815260200160038201548152602001600482015481526020016005820160009054906101000a900473ffffffffffffffffffffffffffffffffffffffff1673ffffffffffffffffffffffffffffffffffffffff1673ffffffffffffffffffffffffffffffffffffffff16815250509050600073ffffffffffffffffffffffffffffffffffffffff168160a0015173ffffffffffffffffffffffffffffffffffffffff161415610662576040517f08c379a000000000000000000000000000000000000000000000000000000000815260040161065990612492565b60405180910390fd5b81816080015110156106a9576040517f08c379a00000000000000000000000000000000000000000000000000000000081526004016106a090612472565b60405180910390fd5b816005846040516106ba919061231f565b908152602001604051809103902060040160008282546106da91906126db565b9250508190555060008160a00151905060008173ffffffffffffffffffffffffffffffffffffffff166370a08231306040518263ffffffff1660e01b8152600401610725919061234d565b60206040518083038186803b15801561073d57600080fd5b505afa158015610751573d6000803e3d6000fd5b505050506040513d601f19601f82011682018060405250810190610775919061207e565b905060005b818110156108ef5760008373ffffffffffffffffffffffffffffffffffffffff16632f745c5930846040518363ffffffff1660e01b81526004016107bf92919061239f565b60206040518083038186803b1580156107d757600080fd5b505afa1580156107eb573d6000803e3d6000fd5b505050506040513d601f19601f8201168201806040525081019061080f919061207e565b905084606001518111158015610829575084604001518110155b156108db578373ffffffffffffffffffffffffffffffffffffffff166323b872dd308a846040518463ffffffff1660e01b815260040161086b93929190612368565b600060405180830381600087803b15801561088557600080fd5b505af1158015610899573d6000803e3d6000fd5b5050505081806108a890612799565b92505082806108b690612799565b93505085806108c490612799565b96505060008614156108da5750505050506108f4565b5b5080806108e790612826565b91505061077a565b505050505b505050565b600160009054906101000a900473ffffffffffffffffffffffffffffffffffffffff1673ffffffffffffffffffffffffffffffffffffffff163373ffffffffffffffffffffffffffffffffffffffff1614610989576040517f08c379a0000000000000000000000000000000000000000000000000000000008152600401610980906124d2565b60405180910390fd5b60005b8251811015610a40576004826040516109a5919061231f565b90815260200160405180910390208382815181106109ec577f4e487b7100000000000000000000000000000000000000000000000000000000600052603260045260246000fd5b6020026020010151908060018154018082558091505060019003906000526020600020016000909190919091509080519060200190610a2c929190611a47565b508080610a3890612826565b91505061098c565b505050565b6060600482604051610a57919061231f565b9081526020016040518091039020805480602002602001604051908101604052809291908181526020016000905b82821015610b31578382906000526020600020018054610aa4906127c3565b80601f0160208091040260200160405190810160405280929190818152602001828054610ad0906127c3565b8015610b1d5780601f10610af257610100808354040283529160200191610b1d565b820191906000526020600020905b815481529060010190602001808311610b0057829003601f168201915b505050505081526020019060010190610a85565b505050509050919050565b600160009054906101000a900473ffffffffffffffffffffffffffffffffffffffff1673ffffffffffffffffffffffffffffffffffffffff163373ffffffffffffffffffffffffffffffffffffffff1614610bcc576040517f08c379a0000000000000000000000000000000000000000000000000000000008152600401610bc3906124d2565b60405180910390fd5b6000600482604051610bde919061231f565b908152602001604051809103902080549050905060005b81811015610ea05783604051602001610c0e919061231f565b60405160208183030381529060405280519060200120600484604051610c34919061231f565b90815260200160405180910390208281548110610c7a577f4e487b7100000000000000000000000000000000000000000000000000000000600052603260045260246000fd5b90600052602060002001604051602001610c949190612336565b604051602081830303815290604052805190602001201415610e8d57600483604051610cc0919061231f565b90815260200160405180910390208181548110610d06577f4e487b7100000000000000000000000000000000000000000000000000000000600052603260045260246000fd5b906000526020600020016000610d1c9190611acd565b600182610d2991906126db565b8114610e8657600483604051610d3f919061231f565b9081526020016040518091039020600183610d5a91906126db565b81548110610d91577f4e487b7100000000000000000000000000000000000000000000000000000000600052603260045260246000fd5b90600052602060002001600484604051610dab919061231f565b90815260200160405180910390208281548110610df1577f4e487b7100000000000000000000000000000000000000000000000000000000600052603260045260246000fd5b90600052602060002001908054610e07906127c3565b610e12929190611b0d565b50600483604051610e23919061231f565b9081526020016040518091039020805480610e67577f4e487b7100000000000000000000000000000000000000000000000000000000600052603160045260246000fd5b600190038181906000526020600020016000610e839190611acd565b90555b5050610ea3565b8080610e9890612826565b915050610bf5565b50505b5050565b6000600482604051610eb9919061231f565b9081526020016040518091039020805480602002602001604051908101604052809291908181526020016000905b82821015610f93578382906000526020600020018054610f06906127c3565b80601f0160208091040260200160405190810160405280929190818152602001828054610f32906127c3565b8015610f7f5780601f10610f5457610100808354040283529160200191610f7f565b820191906000526020600020905b815481529060010190602001808311610f6257829003601f168201915b505050505081526020019060010190610ee7565b5050505090506000815111610fdd576040517f08c379a0000000000000000000000000000000000000000000000000000000008152600401610fd4906124b2565b60405180910390fd5b6000805b82518110156111105760006005848381518110611027577f4e487b7100000000000000000000000000000000000000000000000000000000600052603260045260246000fd5b602002602001015160405161103c919061231f565b9081526020016040518091039020600401541161108e576040517f08c379a000000000000000000000000000000000000000000000000000000000815260040161108590612472565b60405180910390fd5b60058382815181106110c9577f4e487b7100000000000000000000000000000000000000000000000000000000600052603260045260246000fd5b60200260200101516040516110de919061231f565b908152602001604051809103902060010154826110fb91906125fa565b9150808061110890612826565b915050610fe1565b5061113e30600260009054906101000a900473ffffffffffffffffffffffffffffffffffffffff168361163d565b60005b82518110156111c4576111b1856005858481518110611189577f4e487b7100000000000000000000000000000000000000000000000000000000600052603260045260246000fd5b602002602001015160405161119e919061231f565b90815260200160405180910390206117f2565b80806111bc90612826565b915050611141565b5050505050565b60606000806000806000806005886040516111e6919061231f565b90815260200160405180910390206040518060c001604052908160008201805461120f906127c3565b80601f016020809104026020016040519081016040528092919081815260200182805461123b906127c3565b80156112885780601f1061125d57610100808354040283529160200191611288565b820191906000526020600020905b81548152906001019060200180831161126b57829003601f168201915b50505050508152602001600182015481526020016002820154815260200160038201548152602001600482015481526020016005820160009054906101000a900473ffffffffffffffffffffffffffffffffffffffff1673ffffffffffffffffffffffffffffffffffffffff1673ffffffffffffffffffffffffffffffffffffffff16815250509050806000015181602001518260400151836060015184608001518560a001519650965096509650965096505091939550919395565b600160009054906101000a900473ffffffffffffffffffffffffffffffffffffffff1673ffffffffffffffffffffffffffffffffffffffff163373ffffffffffffffffffffffffffffffffffffffff16146113d5576040517f08c379a00000000000000000000000000000000000000000000000000000000081526004016113cc906124d2565b60405180910390fd5b806005836040516113e6919061231f565b9081526020016040518091039020600401600082825461140691906125fa565b925050819055505050565b6000600582604051611423919061231f565b90815260200160405180910390206004015411611475576040517f08c379a000000000000000000000000000000000000000000000000000000000815260040161146c90612472565b60405180910390fd5b61149c82600583604051611489919061231f565b90815260200160405180910390206117f2565b6114ea30600260009054906101000a900473ffffffffffffffffffffffffffffffffffffffff166005846040516114d3919061231f565b90815260200160405180910390206001015461163d565b5050565b600160009054906101000a900473ffffffffffffffffffffffffffffffffffffffff1673ffffffffffffffffffffffffffffffffffffffff163373ffffffffffffffffffffffffffffffffffffffff161461157e576040517f08c379a0000000000000000000000000000000000000000000000000000000008152600401611575906124d2565b60405180910390fd5b6000811161158b57600080fd5b60008054906101000a900473ffffffffffffffffffffffffffffffffffffffff1673ffffffffffffffffffffffffffffffffffffffff1663a9059cbb83836040518363ffffffff1660e01b81526004016115e692919061239f565b602060405180830381600087803b15801561160057600080fd5b505af1158015611614573d6000803e3d6000fd5b505050506040513d601f19601f820116820180604052508101906116389190611e86565b505050565b6000612710600354836116509190612681565b61165a9190612650565b90506000811161166957600080fd5b6000818361167791906126db565b1161168157600080fd5b60008054906101000a900473ffffffffffffffffffffffffffffffffffffffff1673ffffffffffffffffffffffffffffffffffffffff166323b872dd338684866116cb91906126db565b6040518463ffffffff1660e01b81526004016116e993929190612368565b602060405180830381600087803b15801561170357600080fd5b505af1158015611717573d6000803e3d6000fd5b505050506040513d601f19601f8201168201806040525081019061173b9190611e86565b5060008054906101000a900473ffffffffffffffffffffffffffffffffffffffff1673ffffffffffffffffffffffffffffffffffffffff166323b872dd3385846040518463ffffffff1660e01b815260040161179993929190612368565b602060405180830381600087803b1580156117b357600080fd5b505af11580156117c7573d6000803e3d6000fd5b505050506040513d601f19601f820116820180604052508101906117eb9190611e86565b5050505050565b60008160050160009054906101000a900473ffffffffffffffffffffffffffffffffffffffff16905060008173ffffffffffffffffffffffffffffffffffffffff166370a08231306040518263ffffffff1660e01b8152600401611856919061234d565b60206040518083038186803b15801561186e57600080fd5b505afa158015611882573d6000803e3d6000fd5b505050506040513d601f19601f820116820180604052508101906118a6919061207e565b905060005b81811015611a075760008373ffffffffffffffffffffffffffffffffffffffff16632f745c5930846040518363ffffffff1660e01b81526004016118f092919061239f565b60206040518083038186803b15801561190857600080fd5b505afa15801561191c573d6000803e3d6000fd5b505050506040513d601f19601f82011682018060405250810190611940919061207e565b90508460030154811115801561195a575084600201548110155b156119f357600185600401600082825461197491906126db565b925050819055508373ffffffffffffffffffffffffffffffffffffffff166323b872dd3088846040518463ffffffff1660e01b81526004016119b893929190612368565b600060405180830381600087803b1580156119d257600080fd5b505af11580156119e6573d6000803e3d6000fd5b5050505050505050611a43565b5080806119ff90612826565b9150506118ab565b506040517f08c379a0000000000000000000000000000000000000000000000000000000008152600401611a3a90612492565b60405180910390fd5b5050565b828054611a53906127c3565b90600052602060002090601f016020900481019282611a755760008555611abc565b82601f10611a8e57805160ff1916838001178555611abc565b82800160010185558215611abc579182015b82811115611abb578251825591602001919060010190611aa0565b5b509050611ac99190611b9a565b5090565b508054611ad9906127c3565b6000825580601f10611aeb5750611b0a565b601f016020900490600052602060002090810190611b099190611b9a565b5b50565b828054611b19906127c3565b90600052602060002090601f016020900481019282611b3b5760008555611b89565b82601f10611b4c5780548555611b89565b82800160010185558215611b8957600052602060002091601f016020900482015b82811115611b88578254825591600101919060010190611b6d565b5b509050611b969190611b9a565b5090565b5b80821115611bb3576000816000905550600101611b9b565b5090565b6000611bca611bc584612517565b6124f2565b90508083825260208201905082856020860282011115611be957600080fd5b60005b85811015611c3357813567ffffffffffffffff811115611c0b57600080fd5b808601611c188982611ccf565b85526020850194506020840193505050600181019050611bec565b5050509392505050565b6000611c50611c4b84612543565b6124f2565b905082815260208101848484011115611c6857600080fd5b611c73848285612757565b509392505050565b600081359050611c8a81612a09565b92915050565b600082601f830112611ca157600080fd5b8135611cb1848260208601611bb7565b91505092915050565b600081519050611cc981612a20565b92915050565b600082601f830112611ce057600080fd5b8135611cf0848260208601611c3d565b91505092915050565b600081359050611d0881612a37565b92915050565b600081519050611d1d81612a37565b92915050565b60008060408385031215611d3657600080fd5b6000611d4485828601611c7b565b925050602083013567ffffffffffffffff811115611d6157600080fd5b611d6d85828601611ccf565b9150509250929050565b600080600060608486031215611d8c57600080fd5b6000611d9a86828701611c7b565b935050602084013567ffffffffffffffff811115611db757600080fd5b611dc386828701611ccf565b9250506040611dd486828701611cf9565b9150509250925092565b60008060408385031215611df157600080fd5b6000611dff85828601611c7b565b9250506020611e1085828601611cf9565b9150509250929050565b60008060408385031215611e2d57600080fd5b600083013567ffffffffffffffff811115611e4757600080fd5b611e5385828601611c90565b925050602083013567ffffffffffffffff811115611e7057600080fd5b611e7c85828601611ccf565b9150509250929050565b600060208284031215611e9857600080fd5b6000611ea684828501611cba565b91505092915050565b600060208284031215611ec157600080fd5b600082013567ffffffffffffffff811115611edb57600080fd5b611ee784828501611ccf565b91505092915050565b60008060408385031215611f0357600080fd5b600083013567ffffffffffffffff811115611f1d57600080fd5b611f2985828601611ccf565b925050602083013567ffffffffffffffff811115611f4657600080fd5b611f5285828601611ccf565b9150509250929050565b600080600080600080600060e0888a031215611f7757600080fd5b600088013567ffffffffffffffff811115611f9157600080fd5b611f9d8a828b01611ccf565b975050602088013567ffffffffffffffff811115611fba57600080fd5b611fc68a828b01611ccf565b9650506040611fd78a828b01611cf9565b9550506060611fe88a828b01611cf9565b9450506080611ff98a828b01611cf9565b93505060a061200a8a828b01611cf9565b92505060c061201b8a828b01611c7b565b91505092959891949750929550565b6000806040838503121561203d57600080fd5b600083013567ffffffffffffffff81111561205757600080fd5b61206385828601611ccf565b925050602061207485828601611cf9565b9150509250929050565b60006020828403121561209057600080fd5b600061209e84828501611d0e565b91505092915050565b60006120b3838361213f565b905092915050565b6120c48161270f565b82525050565b60006120d582612599565b6120df81856125bc565b9350836020820285016120f185612574565b8060005b8581101561212d578484038952815161210e85826120a7565b9450612119836125af565b925060208a019950506001810190506120f5565b50829750879550505050505092915050565b600061214a826125a4565b61215481856125cd565b9350612164818560208601612766565b61216d8161292b565b840191505092915050565b6000612183826125a4565b61218d81856125de565b935061219d818560208601612766565b6121a68161292b565b840191505092915050565b60006121bc826125a4565b6121c681856125ef565b93506121d6818560208601612766565b80840191505092915050565b600081546121ef816127c3565b6121f981866125ef565b94506001821660008114612214576001811461222557612258565b60ff19831686528186019350612258565b61222e85612584565b60005b8381101561225057815481890152600182019150602081019050612231565b838801955050505b50505092915050565b600061226e6012836125de565b91506122798261293c565b602082019050919050565b6000612291600e836125de565b915061229c82612965565b602082019050919050565b60006122b4600d836125de565b91506122bf8261298e565b602082019050919050565b60006122d76017836125de565b91506122e2826129b7565b602082019050919050565b60006122fa6009836125de565b9150612305826129e0565b602082019050919050565b6123198161274d565b82525050565b600061232b82846121b1565b915081905092915050565b600061234282846121e2565b915081905092915050565b600060208201905061236260008301846120bb565b92915050565b600060608201905061237d60008301866120bb565b61238a60208301856120bb565b6123976040830184612310565b949350505050565b60006040820190506123b460008301856120bb565b6123c16020830184612310565b9392505050565b600060208201905081810360008301526123e281846120ca565b905092915050565b600060c08201905081810360008301526124048189612178565b90506124136020830188612310565b6124206040830187612310565b61242d6060830186612310565b61243a6080830185612310565b61244760a08301846120bb565b979650505050505050565b6000602082019050818103600083015261246b81612261565b9050919050565b6000602082019050818103600083015261248b81612284565b9050919050565b600060208201905081810360008301526124ab816122a7565b9050919050565b600060208201905081810360008301526124cb816122ca565b9050919050565b600060208201905081810360008301526124eb816122ed565b9050919050565b60006124fc61250d565b905061250882826127f5565b919050565b6000604051905090565b600067ffffffffffffffff821115612532576125316128fc565b5b602082029050602081019050919050565b600067ffffffffffffffff82111561255e5761255d6128fc565b5b6125678261292b565b9050602081019050919050565b6000819050602082019050919050565b60008190508160005260206000209050919050565b600081519050919050565b600081519050919050565b6000602082019050919050565b600082825260208201905092915050565b600082825260208201905092915050565b600082825260208201905092915050565b600081905092915050565b60006126058261274d565b91506126108361274d565b9250827fffffffffffffffffffffffffffffffffffffffffffffffffffffffffffffffff038211156126455761264461286f565b5b828201905092915050565b600061265b8261274d565b91506126668361274d565b9250826126765761267561289e565b5b828204905092915050565b600061268c8261274d565b91506126978361274d565b9250817fffffffffffffffffffffffffffffffffffffffffffffffffffffffffffffffff04831182151516156126d0576126cf61286f565b5b828202905092915050565b60006126e68261274d565b91506126f18361274d565b9250828210156127045761270361286f565b5b828203905092915050565b600061271a8261272d565b9050919050565b60008115159050919050565b600073ffffffffffffffffffffffffffffffffffffffff82169050919050565b6000819050919050565b82818337600083830152505050565b60005b83811015612784578082015181840152602081019050612769565b83811115612793576000848401525b50505050565b60006127a48261274d565b915060008214156127b8576127b761286f565b5b600182039050919050565b600060028204905060018216806127db57607f821691505b602082108114156127ef576127ee6128cd565b5b50919050565b6127fe8261292b565b810181811067ffffffffffffffff8211171561281d5761281c6128fc565b5b80604052505050565b60006128318261274d565b91507fffffffffffffffffffffffffffffffffffffffffffffffffffffffffffffffff8214156128645761286361286f565b5b600182019050919050565b7f4e487b7100000000000000000000000000000000000000000000000000000000600052601160045260246000fd5b7f4e487b7100000000000000000000000000000000000000000000000000000000600052601260045260246000fd5b7f4e487b7100000000000000000000000000000000000000000000000000000000600052602260045260246000fd5b7f4e487b7100000000000000000000000000000000000000000000000000000000600052604160045260246000fd5b6000601f19601f8301169050919050565b7f6e667420616c7265616479206578697374730000000000000000000000000000600082015250565b7f6e6674206e6f7420656e6f756768000000000000000000000000000000000000600082015250565b7f6e6674206e6f7420666f756e6400000000000000000000000000000000000000600082015250565b7f6e6f206e667420696e2073756368206e667467726f7570000000000000000000600082015250565b7f4e6f74206f776e65720000000000000000000000000000000000000000000000600082015250565b612a128161270f565b8114612a1d57600080fd5b50565b612a2981612721565b8114612a3457600080fd5b50565b612a408161274d565b8114612a4b57600080fd5b5056fea2646970667358221220f7dc265a6ab815744890c9eb81b54c8439db8233900d272245964519fd6139a964736f6c63430008040033",
  "linkReferences": {},
  "deployedLinkReferences": {}
}